:04000000FEEFFFF020
:10200000003132332B3435362D3738392A43303DC1
:102010002F0006EC12F0C56A3A01706BBD6AFDEC48
:1020200010F00A6E0A50D8B418EF10F01AEF10F042
:102030000FEF10F0020E066E860E056E990EE82E5A
:10204000FED7052EFCD7062EFAD700002F0E0A6405
:102050002CEF10F02EEF10F061EF10F03A0E0A6046
:1020600034EF10F036EF10F061EF10F0D00E0A24CC
:10207000076E086AFF0E08220B50D8A442EF10F03A
:1020800044EF10F04EEF10F00E500A0DF3500724FD
:102090000E6E60003BF0BDFF0FEF10F0020E0B184C
:1020A000D8A455EF10F057EF10F0F9EF10F00D50E5
:1020B0000A0DF35007240D6E600037F0BDFF0FEFDF
:1020C00010F02B0E0A18D8B468EF10F06AEF10F079
:1020D00085EF10F02D0E0A18D8B471EF10F073EFE1
:1020E00010F085EF10F02A0E0A18D8B47AEF10F02D
:1020F0007CEF10F085EF10F02F0E0A18D8A483EFB4
:1021000010F085EF10F093EF10F00B50D8A48BEF88
:1021100010F08DEF10F00FEF10F00AC00CF0020E6F
:102120000B6E0EEF10F03D0E0A18D8A49AEF10F0C7
:102130009CEF10F0E9EF10F0C2EF10F00E500D24FC
:10214000096ED5EF10F00D500E5C096ED5EF10F052
:102150000E500D026F00CCFF09F0D5EF10F00D50BE
:10216000D8B4B5EF10F0B7EF10F0BFEF10F00DC01E
:1021700001F00E50D2EC11F0096ED5EF10F0096AA3
:10218000D5EF10F00C502A0AD8B4A8EF10F0010ACD
:10219000D8B49EEF10F0060AD8B4A3EF10F0020AEC
:1021A000D8B4AFEF10F0BFEF10F0600027F0BDFF24
:1021B0000E6A0D6A0C6A0B6A0B0E066E260E056E11
:1021C0005E0EE82EFED7052EFCD7062EFAD70EEFB0
:1021D00010F0430E0A18D8A4F0EF10F0F2EF10F050
:1021E000F9EF10F00E6A0D6A0C6A0B6ABD6A0FEF08
:1021F00010F00FEF10F0FEEFFFF0000E046E000E77
:10220000036EBB96BB94BB92BB9013EF11F0BB80E7
:1022100031EF11F0BB8231EF11F0BB8431EF11F0DF
:10222000BB8631EF11F003C001F004C002F0025090
:10223000000AD8B41EEF11F031EF11F00150000A7E
:10224000D8B407EF11F0010AD8B40AEF11F0030A6D
:10225000D8B40DEF11F0010AD8B410EF11F031EF3E
:1022600011F0070E016E7D0EE82EFED7012EFCD771
:102270000000CBA83EEF11F040EF11F057EF11F046
:10228000CBB845EF11F047EF11F040EF11F00350DC
:10229000040DF350010F016E600007F0F6FF200EF1
:1022A000F76E000EF86E0800F550D1EF11F0CBAAD2
:1022B0005CEF11F05EEF11F07AEF11F0CBBA63EF43
:1022C00011F065EF11F05EEF11F00350040D6F0097
:1022D000CCFF01F0010E01260150010F026E6000DB
:1022E0000BF0F6FF200EF76E000EF86E0800F550AA
:1022F000D1EF11F0CBAC7FEF11F081EF11F09DEF3A
:1023000011F0CBBC86EF11F088EF11F081EF11F0E6
:102310000350040D6F00CCFF01F0020E01260150A6
:10232000010F026E60000BF0F6FF200EF76E000E3C
:10233000F86E0800F550D1EF11F0CBAEA2EF11F01E
:10234000A4EF11F0C0EF11F0CBBEA9EF11F0ABEF8D
:1023500011F0A4EF11F00350040D6F00CCFF01F059
:10236000030E01260150010F026E60000BF0F6FF14
:10237000200EF76E000EF86E0800F550D1EF11F048
:10238000034A042A04BECEEF11F0045009E1040E02
:10239000035CD8A0CEEF11F0D0EF11F001EF11F0F7
:1023A000000E1200026E046A0150D8B4DAEF11F088
:1023B000DCEF11F0FDEF11F0010E036EE3EF11F011
:1023C000D8900136032A01AEE8EF11F0EAEF11F0E0
:1023D000E0EF11F0D89004360150025CD8A0F3EF82
:1023E00011F0F5EF11F0F8EF11F00150025E0480EA
:1023F000D8900132032EEAEF11F0045012000E6A59
:102400000D6A0C6A0B6A000109EF10F0F00EC36E42
:08241000BB6A3A01506B120097
:020000040001F9
:04FFFC00FFEF11F012
:020000040030CA
:0A000000F8FFFFFF9FFFFFFFFFFF67
:00000001FF
