:0400000057EF18F0AE
:022000000000DE
:103008002B0C2B0C2B0C2B0C2B0C2B0C2B0C2B0C00
:10301800F30C2B0C2B0C2B0C2B0C2B0C2B0C2B0C28
:103028002B0C2B0C2B0C2B0C2B0C2B0C2B0C2B0CE0
:103038002B0C2B0C2B0C2B0C2B0C2B0C2B0C2B0CD0
:103048002B0C2B0C2B0C2B0C2B0C2B0C2B0C2B0CC0
:103058002B0C2B0C2B0C2B0C2B0C2B0C2B0C2B0CB0
:103068002B0C2B0C2B0C2B0C2B0C2B0C2B0C2B0CA0
:103078002B0C2B0C2B0C2B0C2B0C2B0C2B0C2B0C90
:103088002B0C2B0C2B0C2B0C2B0C2B0C2B0C2B0C80
:103098002B0C2B0C2B0C2B0C2B0C2B0C2B0C2B0C70
:1030A8002B0C2B0CFF00CAEF19F007500810D8A4FE
:1030B80060EF18F062EF18F066EF18F03F0ECD6E73
:1030C800EFEF18F007040810D8A46DEF18F06FEFB1
:1030D80018F073EF18F0060ECD6EEFEF18F0020E31
:1030E80007180810D8A47BEF18F07DEF18F081EFCF
:1030F80018F05B0ECD6EEFEF18F0020E07180810EF
:10310800D8A489EF18F08BEF18F08DEF18F07DEF49
:1031180018F0030E07180810D8A495EF18F097EFC9
:1031280018F09BEF18F04F0ECD6EEFEF18F0040E6D
:1031380007180810D8A4A3EF18F0A5EF18F0A9EF06
:1031480018F0660ECD6EEFEF18F0050E0718081090
:10315800D8A4B1EF18F0B3EF18F0B7EF18F06D0E70
:10316800CD6EEFEF18F0060E07180810D8A4BFEFC1
:1031780018F0C1EF18F0C5EF18F07D0ECD6EEFEF27
:1031880018F0070E07180810D8A4CDEF18F0CFEFE5
:1031980018F0D3EF18F0070ECD6EEFEF18F0080E09
:1031A80007180810D8A4DBEF18F0DDEF18F0E1EFEE
:1031B80018F07F0ECD6EEFEF18F0090E0718081003
:1031C800D8A4E9EF18F0EBEF18F0EFEF18F06F0E56
:1031D800CD6EEFEF18F0120044EC19F059EC18F02E
:1031E800F8EF18F0A0EC19F00B50D8B4FEEF18F077
:1031F80000EF19F0F6EF18F0020E066E450E056E98
:10320800AA0EE82EFED7052EFCD7062EFAD70A0EF0
:1032180007026F00CCFF05F06F00D0FF06F0080230
:10322800F350062605C009F006C00AF00B6A000E26
:10323800086E000E076E59EC18F025EF19F0A0EC97
:1032480019F00B50D8B42BEF19F02DEF19F023EF2C
:1032580019F0020E066E450E056EAA0EE82EFED770
:10326800052EFCD7062EFAD707500924096E0850F8
:103278000A200A6E74EC19F0F0EF18F057EF18F006
:10328800CA6ABA6A3A01406B070EC26E416BCB6AD2
:10329800BB6A506B030EC36E516BCC6ABC6A606B21
:1032A800C46ACD6ABD6A706BC56A0B6A000E086E87
:1032B800000E076E000E0A6E000E096E000E0D6EEF
:1032C8000B0E0C6ED280D28AD28ED28C39018181BB
:1032D8009181A191D76A300ED66E080ED56E120074
:1032E80059EC18F00C50091807E10D500A18D8A429
:1032F80080EF19F082EF19F092EF19F0CA8A1A0ECE
:10330800046E5E0E036E6E0EE82EFED7032EFCD7FB
:10331800042EFAD700D0CA9A9FEF19F0CB84100E6A
:10332800046E390E036E0E0EE82EFED7032EFCD760
:10333800042EFAD7CB941200C1EF19F0CAA0A7EF58
:1033480019F0A9EF19F0B8EF19F0074A082A59EC53
:1033580018F0030E046E8A0E036E560EE82EFED782
:10336800032EFCD7042EFAD7CBA2BDEF19F0BFEF7E
:1033780019F0C1EF19F0010E0B6E0B50D8B4C7EF5E
:1033880019F0C9EF19F0A2EF19F01200FC0EF66E51
:10339800330EF76E000EF86E09006F00D4FF0CF0C4
:1033A80009006F00D4FF0DF00B6A0A6A096A086AFF
:1033B800076A080ED56E300ED66E000ED76E000165
:1033C800F0EF18F03901A1A1ECEF19F0EEEF19F0C8
:1033D800FBEF19F0CB840B0E026E260E016E5E0E0B
:1033E800E82EFED7012EFCD7022EFAD7CB9439014E
:0633F800A19111000B0081
:020000040030CA
:0A000000F8FFFFFF9FFFFFFFFFFF67
:00000001FF
