:0400000057EF30F096
:102000000054696D653A20253264207365632000B1
:10201000494E54455252555054204D4F4445004965
:102020006E707574204C696768743A00252D332EE4
:102030003066204C757800252E3066204C7578006F
:102040002D2D2D204C757800696E66006E616E0036
:01205000008F
:10600800E422E422E422E422E422E422E422E42258
:10601800E422E422E422E422E422E422E422E42248
:10602800E422E422E422E422E422E422E422E42238
:10603800E422E422E422E422E422E422E422E42228
:10604800E422E422E422E4222B18E422E422E422DB
:10605800E422E422E422E422E422E422E422E42208
:10606800E422E422E422E422E422E422E422E422F8
:10607800E422E4222B18E422E422E4222B182B1831
:106088002B182B182B182B182B182B18E422E4226A
:10609800E422E422E422E4222B182B182B182B18D4
:1060A800E422E422FF0030EF4AF00001BC6B94C008
:1060B800BDF095C0BEF096C0BFF097C0C0F0C0BF9D
:1060C8006AEF30F068EF30F07EEF30F0010EBC6F11
:1060D800BDC060F0BEC061F0BFC062F0C0C063F078
:1060E80013EC4AF060C0BDF061C0BEF062C0BFF002
:1060F80063C0C0F0000E0001C26F000EC16FEFC098
:10610800ACF0F0C0ADF0BC51D8B48DEF30F08FEFEB
:1061180030F0A3EF30F0BC51D8A495EF30F097EFF2
:1061280030F09DEF30F0000EA26F2B0EA16FA1EFA3
:1061380030F0000EA26F2D0EA16FA1C0BCF0BDC043
:1061480060F0BEC061F0BFC062F0C0C063F047EC51
:1061580045F0000160056111D8A4B5EF30F0B7EF44
:1061680030F0E5EF30F0BC51D8B4BDEF30F0BFEF00
:1061780030F0C8EF30F0BCC000F1AC07D8A0AD07D4
:10618800000EC26F010EC16F000EC125606F010EB7
:10619800C221616F480E626F6AEC49F00001FD0E82
:1061A800AC27FF0EAD2393C06EF0000E6F6F010E8B
:1061B800706FACC071F0ADC072F015EC48F04FEFE5
:1061C80035F0BDC060F0BEC061F0BFC062F0C0C0B5
:1061D80063F047EC45F0000160516111D8A4F7EF76
:1061E80030F0F9EF30F016EF31F0BC51D8B4FFEFD2
:1061F80030F001EF31F00AEF31F0BCC000F1AC072C
:10620800D8A0AD07000EC26F010EC16F000EC125E8
:10621800606F010EC221616F4C0E626F6AEC49F02B
:10622800D2EF30F0000EC36F000EC46F800EC56F42
:106238003F0EC66F000EAB6F000EAA6FBDC060F0B8
:10624800BEC061F0BFC062F0C0C063F0000E646FF2
:10625800000E656F000E666F000E676FBFEC47F0AB
:106268000001D8B03AEF31F03CEF31F01EEF32F0D8
:1062780048EF31F0AEC0C3F0AFC0C4F0B0C0C5F055
:10628800B1C0C6F0AA4BAB2BC3C06EF0C4C06FF050
:10629800C5C070F0C6C071F0000E726F000E736F4B
:1062A800200E746F410E756FACEC37F06EC0AEF017
:1062B8006FC0AFF070C0B0F071C0B1F00001AE5166
:1062C800BD5D606FAF51BE59616FB051BF59626F0C
:1062D800B151C059636FC9EC48F0000163BF80EF4A
:1062E80031F063516211611109E1020E605DD8A0BD
:1062F80080EF31F082EF31F03EEF31F0AEC087F041
:10630800AFC088F0B0C089F0B1C08AF0BDC08BF0D2
:10631800BEC08CF0BFC08DF0C0C08EF0C4EC44F09D
:106328000001D8A09AEF31F09CEF31F03EEF31F048
:10633800C351BD5D606FC451BE59616FC551BF592E
:10634800626FC651C059636FC9EC48F0000163BF62
:10635800BBEF31F063516211611107E1020E605D1C
:10636800D8B0B9EF31F0BBEF31F004EF32F0C3C071
:10637800BDF0C4C0BEF0C5C0BFF0C6C0C0F01EEFBF
:1063880032F0C3C060F0C4C061F0C5C062F0C6C0DE
:1063980063F0000E646F000E656F200E666F410E8D
:1063A800676FF7EC3BF060C0C3F061C0C4F062C037
:1063B800C5F063C0C6F00001AA07D8A0AB07C35157
:1063C800BD5D606FC451BE59616FC551BF59626FE1
:1063D800C651C059636FC9EC48F0000163BF02EFB2
:1063E80032F063516211611107E1020E605DD8B0AD
:1063F80000EF32F002EF32F004EF32F0BBEF31F091
:10640800BDC087F0BEC088F0BFC089F0C0C08AF0A8
:10641800C3C08BF0C4C08CF0C5C08DF0C6C08EF070
:10642800C4EC44F00001D8A01CEF32F01EEF32F0AB
:10643800C5EF31F098C0A4F0A4C0A5F0F2BF27EFD3
:1064480032F029EF32F02FEF32F0F1C09DF0F2C0B8
:106458009EF033EF32F0000E9E6F060E9D6F9DC0CA
:10646800A8F09EC0A9F0A84BA92B660EA519D8A420
:1064780040EF32F042EF32F062EF32F0ABBF49EF5B
:1064880032F047EF32F055EF32F0000EC36F000ED6
:10649800C46F800EC56F3F0EC66F000EAB6F000E47
:1064A800AA6F670EA419D8B45CEF32F05EEF32F031
:1064B80062EF32F0AA51A827AB51A923000EB36F9F
:1064C800000EB26FBDC0B4F0BEC0B5F0BFC0B6F02C
:1064D800C0C0B7F0C3C0AEF0C4C0AFF0C5C0B0F024
:1064E800C6C0B1F0F4EF32F0B4C060F0B5C061F0EE
:1064F800B6C062F0B7C063F0C3C064F0C4C065F052
:10650800C5C066F0C6C067F0F7EC3BF060C079F034
:1065180061C07AF062C07BF063C07CF0C0EC40F0F0
:1065280079C0B8F07AC0B9F07BC0BAF07CC0BBF0D3
:10653800B8C060F0B9C061F0BAC062F0BBC063F027
:1065480040EC44F060C0A6F061C0A7F0B4C087F08A
:10655800B5C088F0B6C089F0B7C08AF0B8C072F08C
:10656800B9C073F0BAC074F0BBC075F0C3C06EF0A8
:10657800C4C06FF0C5C070F0C6C071F0ACEC37F0A5
:106588006EC08BF06FC08CF070C08DF071C08EF053
:106598008EEC49F087C0B4F088C0B5F089C0B6F079
:1065A8008AC0B7F0C3C060F0C4C061F0C5C062F073
:1065B800C6C063F0000E0001646F000E656F200E08
:1065C800666F410E676FF7EC3BF060C0C3F061C0C7
:1065D800C4F062C0C5F063C0C6F00001B24BB32B73
:1065E800A851B25DB351800A996FA951800A99598F
:1065F800D8A001EF33F003EF33F078EF32F0C3C0E7
:106608006EF0C4C06FF0C5C070F0C6C071F0000E67
:10661800726F000E736FA00E746F400E756FACEC46
:1066280037F06EC0B8F06FC0B9F070C0BAF071C082
:10663800BBF0B4C087F0B5C088F0B6C089F0B7C069
:106648008AF0B8C08BF0B9C08CF0BAC08DF0BBC06E
:106658008EF0C4EC44F00001D8B035EF33F037EFDA
:1066680033F041EF33F0000EB86F000EB96F000E33
:10667800BA6F000EBB6F6AEF33F0B4C060F0B5C0FC
:1066880061F0B6C062F0B7C063F0B8C064F0B9C0DA
:1066980065F0BAC066F0BBC067F0BFEC47F0000118
:1066A800D8A059EF33F05BEF33F06AEF33F0A6B1BF
:1066B80060EF33F062EF33F06AEF33F0000EB86F3B
:1066C800000EB96F000EBA6F000EBB6FBDC060F050
:1066D800BEC061F0BFC062F0C0C063F0B8C064F073
:1066E800B9C065F0BAC066F0BBC067F050EC35F0D1
:1066F80060C0B4F061C0B5F062C0B6F063C0B7F076
:10670800B4C087F0B5C088F0B6C089F0B7C08AF0C9
:10671800000E0001726F000E736F200E746F410E31
:10672800756FAEC06EF0AFC06FF0B0C070F0B1C0A2
:1067380071F0ACEC37F06EC08BF06FC08CF070C0AD
:106748008DF071C08EF0C4EC44F00001D8A0AFEF1A
:1067580033F0B1EF33F0D9EF33F0AA4BAB2BAEC027
:106768006EF0AFC06FF0B0C070F0B1C071F0000E45
:10677800726F000E736F200E746F410E756FACEC64
:1067880037F06EC0AEF06FC0AFF070C0B0F071C03F
:10679800B1F0660E0001A519D8A4D5EF33F0D7EFF4
:1067A80033F0D9EF33F0A84BA92BAEC0C3F0AFC07C
:1067B800C4F0B0C0C5F0B1C0C6F0AAC09BF0ABC071
:1067C8009CF0A36B000EA06F000E9F6F000EB36FBE
:1067D800000EB26FD6EF34F0B4C060F0B5C061F00F
:1067E800B6C062F0B7C063F0C3C064F0C4C065F05F
:1067F800C5C066F0C6C067F0F7EC3BF060C079F042
:1068080061C07AF062C07BF063C07CF0C0EC40F0FD
:1068180079C0B8F07AC0B9F07BC0BAF07CC0BBF0E0
:10682800B8C060F0B9C061F0BAC062F0BBC063F034
:1068380040EC44F0000161BF2DEF34F0615107E1F5
:106848000A0E605DD8B02BEF34F02DEF34F03DEF39
:1068580034F0B8C060F0B9C061F0BAC062F0BBC033
:1068680063F040EC44F060C0A6F061C0A7F041EFCF
:1068780034F0000EA76F090EA66F0001A351D8A42B
:1068880048EF34F04AEF34F072EF34F09CBF51EF28
:1068980034F04FEF34F072EF34F0000EC125D96EAA
:1068A800010EC221DA6E2E0EDF6EC14BC22BAC0771
:1068B800D8A0AD07010EA36F72EF34F0000EC1250A
:1068C800D96E010EC221DA6E300EDF6EC14BC22BBB
:1068D800AC07D8A0AD079F07D8A0A0079F51A0116B
:1068E800D8A479EF34F07BEF34F062EF34F0000E87
:1068F800C125D96E010EC221DA6EA651300FDF6EA6
:10690800C14BC22BAC07D8A0AD07B4C087F0B5C047
:1069180088F0B6C089F0B7C08AF0B8C072F0B9C0C4
:1069280073F0BAC074F0BBC075F0C3C06EF0C4C0D9
:106938006FF0C5C070F0C6C071F0ACEC37F06EC037
:106948008BF06FC08CF070C08DF071C08EF08EEC43
:1069580049F087C0B4F088C0B5F089C0B6F08AC0E5
:10696800B7F0C3C060F0C4C061F0C5C062F0C6C073
:1069780063F0000E0001646F000E656F200E666FF5
:10698800410E676FF7EC3BF060C0C3F061C0C4F024
:1069980062C0C5F063C0C6F000019B07D8A09C0781
:1069A800B24BB32BA851B25DB351800A996FA9516C
:1069B800800A9959D8B0E3EF34F0E5EF34F0F3EFFB
:1069C80034F0C2BFF1EF34F0C25109E14B0EC15DA2
:1069D800D8A0F1EF34F0F3EF34F0F0EF33F0000E1D
:1069E800B36F4F0EB26F000EB225D96E010EB321F0
:1069F800DA6EDF6A000E996F010E9A6FC151995FC6
:106A0800C2519A5BB2519925606FB3519A21616F57
:106A1800000E626F010E636FC1C064F0C2C065F002
:106A28009BEC48F00001C151B25DC16FC251B3592E
:106A3800C26FBC51D8A423EF35F026EF35F0010E14
:106A480027EF35F0000EB26FB36BBC51D8B42FEFFF
:106A580035F031EF35F03DEF35F0C107D8A0C2076A
:106A6800000EC125D96E010EC221DA6E6000F3F264
:106A7800DFFFB251AC5FB351AD5B93C06EF0000E57
:106A8800C1256F6F010EC221706FACC071F0ADC02F
:106A980072F015EC48F0120000016351800B6C6F26
:106AA800635163256E6F62AF5CEF35F05EEF35F0D2
:106AB8005FEF35F06E816E51D8B465EF35F067EF52
:106AC80035F07BEF35F06E29D8A46DEF35F06FEF18
:106AD80035F077EF35F0000E606F000E616F000E35
:106AE800626F000E636F628F636B83EF35F0000E89
:106AF800606F000E616F000E626F000E636F67516A
:106B0800800B6D6F6C516D19D8B48DEF35F08FEF28
:106B180035F090EF35F06C8D675167256D6F66AF76
:106B280098EF35F09AEF35F09BEF35F06D816D51A8
:106B3800D8B4A1EF35F0A3EF35F0B7EF35F06D29F4
:106B4800D8A4A9EF35F0ABEF35F0B3EF35F0000E70
:106B5800646F000E656F000E666F000E676F668FBC
:106B6800676BBFEF35F0000E646F000E656F000EA7
:106B7800666F000E676F6E516D5DD8B0C6EF35F069
:106B8800C8EF35F0EFEF35F06CADCDEF35F0CFEF66
:106B980035F0D1EF35F0800E6C1B6EC06FF06DC014
:106BA8006EF06FC06DF060C06FF064C060F06FC0D1
:106BB80064F061C06FF065C061F06FC065F062C0DD
:106BC8006FF066C062F06FC066F063C06FF067C0B8
:106BD80063F06FC067F06F6B6E516DC068F0696BE2
:106BE800685F000E695B69BF03EF36F0695109E120
:106BF8001A0E685DD8A003EF36F005EF36F03CEFCB
:106C080036F06051611162116311D8A40EEF36F0AD
:106C180011EF36F0010E12EF36F0000E6F6F000E16
:106C2800606F000E616F000E626F000E636F6DC0C3
:106C38006EF045EF36F06FA124EF36F026EF36F010
:106C48002CEF36F0D8906F3101096F6F2EEF36F0C8
:106C5800D8906F3360A133EF36F035EF36F036EF6A
:106C680036F06F8F633563336233613360336E2B75
:106C78006D516E5DD8A043EF36F045EF36F01FEF4B
:106C880036F06CBD4AEF36F04CEF36F08CEF36F04C
:106C98006E51D8A452EF36F054EF36F05EEF36F06E
:106CA800000E606F000E616F000E626F000E636F62
:106CB800ABEF37F064516027655161236651622359
:106CC8006751632363A16BEF36F06DEF36F019EF70
:106CD80037F06FA172EF36F074EF36F07AEF36F0D6
:106CE800D8906F3101096F6F7CEF36F0D8906F3311
:106CF80060A181EF36F083EF36F084EF36F06F8FC6
:106D0800633563336233613360336E2B19EF37F0C9
:106D18006451605D65516159665162596351800AD9
:106D2800686F6751800A6859D8B09DEF36F09FEFB9
:106D380036F0CAEF36F06051645D686F615165598D
:106D4800696F625166596A6F635167596B6FFF0EBD
:106D58006825606FFF0E6921616FFF0E6A21626FFF
:106D6800FF0E6B21636F800E6C1B6F6D6F51D8A483
:106D7800C0EF36F0C2EF36F0D2EF36F0010E6027E2
:106D8800000E612362236323D2EF36F06451605F03
:106D98006551615B6651625B6751635B605161116C
:106DA80062116311D8A4DBEF36F0DDEF36F012EF95
:106DB80037F06F51D8A4E3EF36F0E5EF36F012EF75
:106DC80037F0000E606F000E616F000E626F000EEC
:106DD800636FABEF37F0D89060376137623763374E
:106DE8006FAFF9EF36F0FBEF36F0FCEF36F060816D
:106DF8006FA101EF37F003EF37F007EF37F0D880D6
:106E08006F3709EF37F0D8906F376E51D8B40FEF5E
:106E180037F011EF37F012EF37F06E0762AF17EF68
:106E280037F019EF37F0EFEF36F06D6B6FAF1FEFFC
:106E380037F021EF37F039EF37F06FC068F07F0E89
:106E48006817D8B42AEF37F02CEF37F030EF37F067
:106E5800010E6D6F39EF37F060A135EF37F037EF7E
:106E680037F039EF37F02CEF37F06D51D8B43FEFEA
:106E780037F041EF37F06CEF37F0010E6027000E66
:106E880061236223632363A14CEF37F04EEF37F0A1
:106E98006CEF37F060C068F061C069F062C06AF0FA
:106EA80063C06BF06B356B336A336933683368C022
:106EB80060F069C061F06AC062F06BC063F06E296F
:106EC800D8B469EF37F06BEF37F06CEF37F06E2B13
:106ED8006E29D8B472EF37F074EF37F07CEF37F0E3
:106EE8006E51D8A47AEF37F07CEF37F08DEF37F09A
:106EF800000E606F000E616F000E626F000E636F10
:106F08006E51D8A48AEF37F08CEF37F08DEF37F059
:106F18006C6B6EA192EF37F094EF37F097EF37F084
:106F2800628F98EF37F0629FD8906E31636F6CAFC5
:106F3800A0EF37F0A2EF37F0A3EF37F0638F60C010
:106F480060F061C061F062C062F063C063F012007B
:106F580000017151800B7A6F71517125806F70AF8C
:106F6800B8EF37F0BAEF37F0BBEF37F080818051D8
:106F7800D8B4C1EF37F0C3EF37F0D6EF37F0802938
:106F8800D8A4C9EF37F0CBEF37F0D3EF37F0000EC6
:106F98006E6F000E6F6F000E706F000E716F708F46
:106FA800DEEF37F0000E6E6F000E6F6F000E706F21
:106FB800000E716F7551800B7A1B755175257B6FAB
:106FC80074AFE9EF37F0EBEF37F0ECEF37F07B8198
:106FD8007B51D8B4F2EF37F0F4EF37F007EF38F021
:106FE8007B29D8A4FAEF37F0FCEF37F004EF38F03C
:106FF800000E726F000E736F000E746F000E756FC7
:10700800748F0FEF38F0000E726F000E736F000E62
:10701800746F000E756F7B51D8B415EF38F017EF09
:1070280038F01FEF38F08051D8A41DEF38F01FEF6B
:1070380038F029EF38F0000E6E6F000E6F6F000EFB
:10704800706F000E716FD1EF39F074516E036F00DD
:10705800CCFF85F06F00D0FF86F085517C6F7D6B8B
:107068007E6B7F6B8651816F826B836B846B7351F0
:107078006F036F00CCFF85F06F00D0FF86F085515D
:107088007C27000E7D237E237F2386518127000ED7
:10709800822383238423725170036F00CCFF85F011
:1070A8006F00D0FF86F085517C27000E7D237E235C
:1070B8007F2386518127000E8223832384237EC069
:1070C8007FF07DC07EF07CC07DF07C6B72516F03D9
:1070D8006F00CCFF85F06F00D0FF86F085517C27CC
:1070E80086517D23000E7E23000E7F2373516E038D
:1070F8006F00CCFF85F06F00D0FF86F085517C27AC
:1071080086517D23000E7E23000E7F237EC07FF0F4
:107118007DC07EF07CC07DF07C6B72516E036F0089
:10712800CCFF85F06F00D0FF86F085517C27865113
:107138007D23000E7E23000E7F2374516F036F00A2
:10714800CCFF85F06F00D0FF86F0855181278651EE
:107158008223000E8323000E8423735170036F0073
:10716800CCFF85F06F00D0FF86F0855181278651CE
:107178008223000E8323000E8423745170036F0052
:10718800CCFF85F06F00D0FF86F08551766F865171
:10719800776F786B796B78C079F077C078F076C0C4
:1071A80077F0766B76518127775182237851832344
:1071B800795184237CC076F07DC077F07EC078F06A
:1071C8007FC079F0190EEEEF38F0D8907933783324
:1071D80077337633E82EE9EF38F076518127775107
:1071E800822378518323795184237EC07FF07DC028
:1071F8007EF07CC07DF07C6B7B5180C076F0776B35
:107208007627000E7723820E7625856FFF0E77216D
:10721800866F24EF39F0D8908137823783378437E7
:107228007FAF19EF39F01BEF39F01CEF39F081818E
:10723800D8907C377D377E377F378507D8A086077B
:1072480083AF29EF39F02BEF39F00FEF39F07B6B73
:107258007FAF31EF39F033EF39F057EF39F0FF0EE8
:107268007C15766FFF0E7D15776FFF0E7E15786F94
:107278007F0E7F15796F7651771178117911D8B40F
:1072880048EF39F04AEF39F04EEF39F0010E7B6FD5
:1072980057EF39F081A153EF39F055EF39F057EF37
:1072A80039F04AEF39F07B51D8B45DEF39F05FEF30
:1072B80039F083EF39F0010E8127000E82238323F2
:1072C800842384A16AEF39F06CEF39F083EF39F049
:1072D80081C076F082C077F083C078F084C079F0FE
:1072E8007935793378337733763376C081F077C060
:1072F80082F078C083F079C084F0854B862B86BFF6
:107308008EEF39F0865108E18529D8A08EEF39F043
:1073180090EF39F09AEF39F0000E816F000E826F0E
:10732800800E836F7F0E846FC7EF39F086BFA7EF9B
:1073380039F0865106E18505D8B0A5EF39F0A7EFF9
:1073480039F0B2EF39F0000E816F000E826F000E37
:10735800836F000E846F7A6BC7EF39F085C080F0B9
:10736800FF0E8117FF0E82177F0E8317000E8417FA
:1073780080A1C1EF39F0C3EF39F0C4EF39F0838F42
:10738800D8908031846F7A51841381C06EF082C0A6
:107398006FF083C070F084C071F012001250800B3F
:1073A8001B6E12501224216E11AEDDEF39F0DFEFA3
:1073B80039F0E0EF39F021802150D8B4E6EF39F008
:1073C800E8EF39F0FBEF39F02128D8A4EEEF39F0D7
:1073D800F0EF39F0F8EF39F0000E0F6E000E106E76
:1073E800000E116E000E126E118E03EF3AF0000EB1
:1073F8000F6E000E106E000E116E000E126E1650FB
:10740800800B1B1A16501624206E15AE0EEF3AF09C
:1074180010EF3AF011EF3AF020802050D8B417EF6F
:107428003AF019EF3AF02CEF3AF02028D8A41FEFE1
:107438003AF021EF3AF029EF3AF0000E136E000E01
:10744800146E000E156E000E166E158E34EF3AF09F
:10745800000E136E000E146E000E156E000E166EE2
:107468002050D8B43AEF3AF03CEF3AF044EF3AF013
:107478002150D8A442EF3AF044EF3AF04EEF3AF0F8
:10748800000E0F6E000E106E000E116E000E126EC2
:10749800F6EF3BF015500F026F00CCFF26F06F009F
:1074A800D0FF27F026501C6E1D6A1E6A1F6A2750DF
:1074B800226E236A246A256A145010026F00CCFFDA
:1074C80026F06F00D0FF27F026501C26000E1D2244
:1074D8001E221F2227502226000E23222422252284
:1074E800135011026F00CCFF26F06F00D0FF27F079
:1074F80026501C26000E1D221E221F22275022263F
:10750800000E2322242225221EC01FF01DC01EF0BB
:107518001CC01DF01C6A135010026F00CCFF26F02F
:107528006F00D0FF27F026501C2627501D22000E82
:107538001E22000E1F2214500F026F00CCFF26F0EF
:107548006F00D0FF27F026501C2627501D22000E62
:107558001E22000E1F221EC01FF01DC01EF01CC0E0
:107568001DF01C6A13500F026F00CCFF26F06F004D
:10757800D0FF27F026501C2627501D22000E1E2261
:10758800000E1F22155010026F00CCFF26F06F006E
:10759800D0FF27F02650222627502322000E24222F
:1075A800000E2522145011026F00CCFF26F06F0048
:1075B800D0FF27F02650222627502322000E24220F
:1075C800000E2522155011026F00CCFF26F06F0027
:1075D800D0FF27F02650176E2750186E196A1A6ABE
:1075E80019C01AF018C019F017C018F0176A175008
:1075F800222618502322195024221A5025221CC052
:1076080017F01DC018F01EC019F01FC01AF0190E8F
:1076180013EF3BF0D8901A32193218321732E82E8D
:107628000EEF3BF01750222618502322195024221F
:107638001A5025221EC01FF01DC01EF01CC01DF0D0
:107648001C6A205021C017F0186A1726000E18224D
:10765800820E1724266EFF0E1820276E49EF3BF086
:10766800D89022362336243625361FAE3EEF3BF01F
:1076780040EF3BF041EF3BF02280D8901C361D369E
:107688001E361F362606D8A0270624AE4EEF3BF03E
:1076980050EF3BF034EF3BF0206A1FAE56EF3BF063
:1076A80058EF3BF07CEF3BF0FF0E1C14176EFF0EFB
:1076B8001D14186EFF0E1E14196E7F0E1F141A6EFD
:1076C8001750181019101A10D8B46DEF3BF06FEF5F
:1076D8003BF073EF3BF0010E206E7CEF3BF022A0F5
:1076E80078EF3BF07AEF3BF07CEF3BF06FEF3BF04D
:1076F8002050D8B482EF3BF084EF3BF0A8EF3BF08A
:10770800010E2226000E23222422252225A08FEFF7
:107718003BF091EF3BF0A8EF3BF022C017F023C0FD
:1077280018F024C019F025C01AF01A341A32193288
:107738001832173217C022F018C023F019C024F0ED
:107748001AC025F0264A272A27BEB3EF3BF0275058
:1077580008E12628D8A0B3EF3BF0B5EF3BF0BFEF28
:107768003BF0000E226E000E236E800E246E7F0EFC
:10777800256EECEF3BF027BECCEF3BF0275006E13F
:107788002604D8B0CAEF3BF0CCEF3BF0D7EF3BF084
:10779800000E226E000E236E000E246E000E256E63
:1077A8001B6AECEF3BF026C021F0FF0E2216FF0EFD
:1077B80023167F0E2416000E251621A0E6EF3BF0B7
:1077C800E8EF3BF0E9EF3BF0248ED8902130256EAE
:1077D8001B50251222C00FF023C010F024C011F056
:1077E80025C012F0120000016351800B706F6351C5
:1077F8006325776F62AF03EF3CF005EF3CF006EFCF
:107808003CF077817751D8B40CEF3CF00EEF3CF0A8
:1078180022EF3CF07729D8A414EF3CF016EF3CF0A7
:107828001EEF3CF0000E606F000E616F000E626F7D
:10783800000E636F628F636B2AEF3CF0000E606F7F
:10784800000E616F000E626F000E636F6751800B50
:10785800701B67516725786F66AF35EF3CF037EFDF
:107868003CF038EF3CF078817851D8B43EEF3CF0EA
:1078780040EF3CF054EF3CF07829D8A446EF3CF0B8
:1078880048EF3CF050EF3CF0000E646F000E656F5F
:10789800000E666F000E676F668F676B5CEF3CF0DB
:1078A800000E646F000E656F000E666F000E676F46
:1078B8006451651166116711D8A465EF3CF067EF54
:1078C8003CF07FEF3CF0000E606F000E616F000E21
:1078D800626F000E636F800E62137F0E6313705128
:1078E800631360C060F061C061F062C062F063C0A1
:1078F80063F0BFEF3DF07751D8A485EF3CF087EFF8
:107908003CF091EF3CF0000E606F000E616F000ECE
:10791800626F000E636FBFEF3DF0785177C068F07B
:10792800696B685F000E695B7F0E6825716F000EDA
:107938006921726F60C06CF061C06DF062C06EF05A
:1079480063C06FF0000E606F000E616F000E626F13
:10795800000E636F000E736F000E746F000E756F6C
:10796800000E766F786BF1EF3CF07851D8B4BFEF2A
:107978003CF0C1EF3CF0D8EF3CF0D8906C376D3755
:107988006E376F37D890603761376237633776AFB5
:10799800D0EF3CF0D2EF3CF0D3EF3CF06081D890D0
:1079A800733774377537763764516C5D65516D5927
:1079B80066516E5967516F59D8A0E5EF3CF0E7EF73
:1079C8003CF0F0EF3CF0768D64516C5F65516D5B77
:1079D80066516E5B67516F5B782B190E7865F7EF10
:1079E8003CF0F9EF3CF0B9EF3CF06C516D116E11C1
:1079F8006F11D8B402EF3DF004EF3DF01CEF3DF0FD
:107A080073811CEF3DF0D890603761376237633778
:107A180076AF11EF3DF013EF3DF014EF3DF06081CC
:107A2800D89073377437753776377107D8A07207CF
:107A380062AF21EF3DF023EF3DF007EF3DF0786BAB
:107A480076AF29EF3DF02BEF3DF04FEF3DF0FF0E05
:107A58007315686FFF0E7415696FFF0E75156A6FE1
:107A68007F0E76156B6F685169116A116B11D8B466
:107A780040EF3DF042EF3DF046EF3DF0010E786FEC
:107A88004FEF3DF060A14BEF3DF04DEF3DF04FEF74
:107A98003DF042EF3DF07851D8B455EF3DF057EF47
:107AA8003DF07BEF3DF0010E6027000E612362235D
:107AB800632363A162EF3DF064EF3DF07BEF3DF09F
:107AC80060C068F061C069F062C06AF063C06BF0C2
:107AD8006B356B336A336933683368C060F069C0EB
:107AE80061F06AC062F06BC063F0714B722B72BFB9
:107AF80086EF3DF0725108E17129D8A086EF3DF07C
:107B080088EF3DF093EF3DF0000E726F7169000E43
:107B1800606F000E616F000E626F000E636F72BFC0
:107B2800A0EF3DF0725106E17105D8B09EEF3DF02F
:107B3800A0EF3DF0ADEF3DF0000E726F000E716FDB
:107B4800000E606F000E616F000E626F000E636FB3
:107B5800706B71C077F077A1B4EF3DF0B6EF3DF0F0
:107B6800B9EF3DF0628FBAEF3DF0629FD890773160
:107B7800636F73EF3CF012000001C851D96EDA6AE6
:107B88006F007FFFF6FF200EF76E000EF86E0800FC
:107B9800F550250AD8A4D3EF3DF0D5EF3DF038EFE6
:107BA8003FF0C851D96EDA6ADF2A000EF06F000E76
:107BB800EF6FEFC0F5F0F169F269CB6B01EF3EF0C2
:107BC800F581C851D96EDA6ADF2A01EF3EF0010E5D
:107BD800CB6F01EF3EF0C851D96EDA6A6F007FFFB4
:107BE800F6FF200EF76E000EF86E0800F5502D0A0D
:107BF800D8B4E4EF3DF0EBEF3DF0CB51D8B407EF4C
:107C08003EF009EF3EF0EFEF3DF0C8C060F0C9C0AC
:107C180061F00AEC47F060C0EFF061C0F0F00001DD
:107C2800F0BF1BEF3EF019EF3EF020EF3EF0F5817C
:107C3800EF6DF01FD8B0F02BC851D96EDA6A6F001B
:107C48007FFFF6FF200EF76E000EF86E0800F55065
:107C58002E0AD8A432EF3EF034EF3EF042EF3EF069
:107C6800C851D96EDA6ADF2AC8C060F0C9C061F0AD
:107C78000AEC47F060C0F1F061C0F2F00001C851B1
:107C8800D96EDA6ADF50D16F600047F3F6FF200E35
:107C9800F76E000EF86E0800F550640AD8B457EF76
:107CA8003EF059EF3EF06AEF3EF0600047F3F6FF12
:107CB800200EF76E000EF86E0800F550690AD8A479
:107CC80068EF3EF06AEF3EF087EF3EF0C951D96E9B
:107CD800DA6A020EDF26DF5CD96EDA6A6F0078FF97
:107CE800CCF06F0078FFCDF0C851D96EDA6AD1298F
:107CF800DF6EC7C076F0CCC077F0CDC078F081ECED
:107D080043F04CEF3FF0C851D96EDA6ADF50D16FBB
:107D1800600047F3F6FF200EF76E000EF86E0800BD
:107D28006F00D4FFD0F0A3EF3EF0D12BB2EF3EF0BE
:107D38006C0ED06FB2EF3EF0D06BB2EF3EF0D05188
:107D48004C0AD8B499EF3EF02A0AD8B49CEF3EF01A
:107D58000A0AD8B499EF3EF0A0EF3EF0600047F36E
:107D6800F6FF200EF76E000EF86E0800F550660A52
:107D7800D8A4C1EF3EF0C3EF3EF031EF3FF0F7EF8C
:107D88003EF0C951D96EDA6A6F007CFFCAF0040E62
:107D9800DF26CA51D96EDA6A6F0078FFCCF06F001F
:107DA80078FFCDF06F0078FFCEF06F0078FFCFF04E
:107DB80002EF3FF0C951D96EDA6A6F007CFFCAF052
:107DC800040EDF26CA51D96EDA6A6F0078FFCCF04C
:107DD8006F0078FFCDF06F0078FFCEF06F0078FF6E
:107DE800CFF002EF3FF0D0514C0AD8B4DEEF3EF0AE
:107DF800200AD8B4C5EF3EF002EF3FF0C851D96E63
:107E0800DA6AD129DF6E22EF3FF0C7C093F0CCC009
:107E180094F0CDC095F0CEC096F0CFC097F060003A
:107E280047F3F6FF200EF76E000EF86E08006F009D
:107E3800D4FF98F059EC30F04CEF3FF0600047F376
:107E4800F6FF200EF76E000EF86E0800F550660A71
:107E5800D8B409EF3FF031EF3FF00001C851D96EB7
:107E6800DA6ADF2A4CEF3FF0C851D96EDA6A6F0040
:107E78007FFFF6FF200EF76E000EF86E0800F55033
:107E8800606F616BC7C062F045EC46F031EF3FF0C0
:107E980012003A01406B506B606B706B66EC4AF0F5
:107EA800A4EC4AF0F4EC49F03E01F881F8B15FEF38
:107EB8003FF061EF3FF05AEF3FF0EF516F00C0FB2A
:107EC800E9F00001EA6BE9C0EAF0E96BE911F36F48
:107ED800EA51F46FF3C060F0F4C061F0000E61BFC6
:107EE800FF0E626F636F010ECBEC41F060C06EF065
:107EF80061C06FF062C070F063C071F0000E0001E5
:107F0800726F000E736FA00E746F3A0E756FACEC43
:107F180037F06EC0EBF06FC0ECF070C0EDF071C0E0
:107F2800EEF0EBC06EF0ECC06FF0EDC070F0EEC09C
:107F380071F0000E0001726F000E736F480E746FBF
:107F4800430E756FACEC37F06EC032F06FC033F093
:107F580070C034F071C035F0010E90EC4AF0000E9C
:107F68000001696F1F0E6A6F6A51D8A4200E6B6FEB
:107F7800010EF5EC48F0360E0001D66FD76B370EC0
:107F8800D86F32C0D9F033C0DAF034C0DBF035C076
:107F9800DCF0D4EC49F0030E0001696F360E6A6F0D
:107FA8006B6B020EF5EC48F0390191853E01F881C2
:107FB8000001F751D8B4E3EF3FF0E5EF3FF069EF88
:107FC80040F0010EF66F010E90EC4AF0000E000131
:107FD800696F100E6A6F6A51D8A4200E6B6F010E7C
:107FE800F5EC48F039019195000E0101626F0A0E17
:107FF800616F500E0001D66F010ED76F010ED86F5A
:1080080061C1D9F062C1DAF0D4EC49F0000E000188
:10801800696F500E6A6F010E6B6F020EF5EC48F037
:10802800BC86030E0001EA6F8A0EE96F550EE82E32
:10803800FED7E92FFCD7EA2FFAD700D0BC96030E5B
:108048000001EA6F8A0EE96F550EE82EFED7E92F78
:10805800FCD7EA2FFAD700D001016107D8A0620740
:1080680062BF41EF40F0625106E16105D8B03FEFD1
:1080780040F041EF40F0FDEF3FF00001F76BF66B89
:10808800BC963A0167953901A09F9185010E90EC45
:108098004AF0000E0001696F1F0E6A6F6A51D8A47A
:1080A800200E6B6F010EF5EC48F0030E0001696FAE
:1080B800400E6A6F6A51D8A4200E6B6F020EF5EC61
:1080C80048F00001F86B3E01F8810001F851D8B47E
:1080D80070EF40F072EF40F0A1EF40F0F651D8A4F5
:1080E80078EF40F07AEF40F0A1EF40F0F86BC30E64
:1080F80090EC4AF0360E0001D66FD76B2C0ED86F75
:1081080032C0D9F033C0DAF034C0DBF035C0DCF06F
:10811800D4EC49F0360E0001676F686B61EC48F0EB
:10812800020E0001EA6F040EE96FBA0EE82EFED7C0
:10813800E92FFCD7EA2FFAD700003E01F8B1A7EFE4
:1081480040F0A9EF40F0DCEF3FF00001F851D8A46F
:10815800B0EF40F0B2EF40F0DCEF3FF0F651D8A4BA
:10816800B8EF40F0BAEF40F0DCEF3FF03E01F881A5
:10817800DCEF3FF057EF30F02AC089F02BC08AF0CF
:108188002CC08BF02DC08CF079C089F07AC08AF0B1
:108198007BC08BF07CC08CF0810E00017D6FFF0EE0
:1081A8007E6F89C07FF08AC080F08BC081F08CC060
:1081B80082F0180EE5EF40F0D89082338133803397
:1081C8007F33E82EE0EF40F07F517D25876F000E6A
:1081D8007E21886F88BFFAEF40F0885109E1170EB9
:1081E800875DD8A0FAEF40F0FCEF40F006EF41F0D1
:1081F80079C079F07AC07AF07BC07BF07CC07CF0E3
:10820800CAEF41F088BF0BEF41F00DEF41F07EEF70
:1082180041F087C07DF0FF0E7E6FFF0E7F6F7F0EEF
:10822800806F000E816F7D671CEF41F024EF41F0F5
:108238008135813380337F337E337D2F17EF41F0D3
:108248007EC083F07FC084F080C085F081C086F056
:108258000001835189157D6F84518A157E6F855180
:108268008B157F6F86518C15806F7D517E117F1124
:108278008011D8A442EF41F044EF41F046EF41F0BD
:10828800FCEF40F089C07DF08AC07EF08BC07FF0A3
:108298008CC080F0200E56EF41F0D89080337F33A9
:1082A8007E337D33E82E51EF41F07D517E117F11F1
:1082B8008011D8B462EF41F064EF41F06CEF41F007
:1082C8008351892784518A2385518B2386518C2396
:1082D800831D7D6F841D7E6F851D7F6F861D806F5A
:1082E8007D5189177E518A177F518B1780518C17C2
:1082F800C2EF41F089C07DF08AC07EF08BC07FF06C
:108308008CC080F0200E8EEF41F0D89080337F3300
:108318007E337D33E82E89EF41F07D517E117F1148
:108328008011D8A49AEF41F09CEF41F0A6EF41F0FC
:10833800000E896F000E8A6F000E8B6F000E8C6F17
:10834800C2EF41F0D89089357D6F8A357E6F8B35C5
:108358007F6F8C35806F7D517E117F118011D8B46D
:10836800B8EF41F0BAEF41F0C2EF41F0000E896F6B
:10837800000E8A6F800E8B6FBF0E8C6F89C079F0EC
:108388008AC07AF08BC07BF08CC07CF012000001B0
:10839800686F00016851D8B4D4EF41F0D6EF41F0CE
:1083A800F8EF41F063BFDDEF41F0DBEF41F0F8EFAC
:1083B80041F060C064F061C065F062C066F063C0FF
:1083C80067F0641F651F661F671F642B000E652317
:1083D8006623672364C06AF065C06BF066C06CF002
:1083E80067C06DF000EF42F060C06AF061C06BF0EA
:1083F80062C06CF063C06DF060516111621163116D
:10840800D8A409EF42F00BEF42F015EF42F0000E4E
:10841800606F000E616F000E626F000E636FA6EF53
:1084280042F0960E696F1FEF42F0692BD8906D33BA
:108438006C336B336A33000E6A15646F000E6B156C
:10844800656F000E6C15666FFE0E6D15676F6451D3
:10845800651166116711D8A434EF42F036EF42F087
:1084680019EF42F044EF42F0692B010E6A27000E23
:108478006B236C236D23D8906D336C336B336A3365
:10848800000E6A15646F000E6B15656F000E6C1593
:10849800666FFF0E6D15676F645165116611671180
:1084A800D8A459EF42F05BEF42F038EF42F063EFA7
:1084B80042F06907D8906A376B376C376D376CBFF5
:1084C80068EF42F06AEF42F072EF42F0020E696123
:1084D80070EF42F072EF42F05DEF42F069B177EF72
:1084E80042F079EF42F07AEF42F06C9FD89069330E
:1084F80069C064F0656B666B676B64C067F0666B38
:10850800656B646B64516A1365516B1366516C1328
:1085180067516D136851D8B494EF42F096EF42F06A
:108528009EEF42F063BF9DEF42F09BEF42F09EEF5B
:1085380042F06D8F6AC060F06BC061F06CC062F091
:108548006DC063F01200096E0950D8B4AEEF42F066
:10855800B0EF42F0D2EF42F004BEB7EF42F0B5EF11
:1085680042F0D2EF42F001C005F002C006F003C0AD
:1085780007F004C008F0051E061E071E081E052A7F
:10858800000E06220722082205C00BF006C00CF0D8
:1085980007C00DF008C00EF0DAEF42F001C00BF092
:1085A80002C00CF003C00DF004C00EF00150021020
:1085B80003100410D8A4E3EF42F0E5EF42F0EFEF28
:1085C80042F0000E016E000E026E000E036E000EE9
:1085D800046E80EF43F0960E0A6EF9EF42F00A2A15
:1085E800D8900E320D320C320B32000E0B14056E81
:1085F800000E0C14066E000E0D14076EFE0E0E14FF
:10860800086E0550061007100810D8A40EEF43F0A6
:1086180010EF43F0F3EF42F01EEF43F00A2A010E89
:108628000B26000E0C220D220E22D8900E320D328F
:108638000C320B32000E0B14056E000E0C14066E75
:10864800000E0D14076EFF0E0E14086E055006106E
:1086580007100810D8A433EF43F035EF43F012EFBA
:1086680043F03DEF43F00A06D8900B360C360D3632
:108678000E360DBE42EF43F044EF43F04CEF43F0AB
:10868800020E0A604AEF43F04CEF43F037EF43F035
:108698000AB051EF43F053EF43F054EF43F00D9E0F
:1086A800D8900A320AC005F0066A076A086A05C047
:1086B80008F0076A066A056A05500B1206500C1284
:1086C80007500D1208500E120950D8B46EEF43F03F
:1086D80070EF43F078EF43F004BE77EF43F075EFA7
:1086E80043F078EF43F00E8E0BC001F00CC002F09F
:1086F8000DC003F00EC004F01200000178BF87EF30
:1087080043F08AEF43F0010E8BEF43F0000E7F6FCA
:10871800F2BF93EF43F091EF43F099EF43F0000E6F
:108728007E6F010E7D6F9DEF43F0F1C07DF0F2C0CA
:108738007EF0EFC07BF0F0C07CF07F51D8B4A7EF9B
:1087480043F0A9EF43F0C0EF43F07B07D8A07C07C4
:108758007F51D8A4B2EF43F0B4EF43F0BAEF43F03F
:10876800000E7A6F2B0E796FBEEF43F0000E7A6F12
:108778002D0E796F79C07FF0000E816F4F0E806FDC
:1087880001014F6BF9EF43F08007D8A08107000E75
:108798008025D96E010E8121DA6E77C060F078C02D
:1087A80061F0000E636F0A0E626F67EC47F060C0FD
:1087B80066F061C067F04BEC4AF000016651300F7B
:1087C800DF6E7D07D8A07E077B07D8A07C0777C01F
:1087D80060F078C061F0000E636F0A0E626FA8EC5B
:1087E80046F060C077F061C078F0000181BF05EF06
:1087F80044F0815108E18005D8A005EF44F007EF67
:1088080044F01DEF44F077517811D8A40EEF44F0EE
:1088180010EF44F0C8EF43F07EBF1DEF44F07E51E7
:1088280006E17D05D8B01BEF44F01DEF44F0C8EF1A
:1088380043F07F51D8B423EF44F025EF44F031EFF3
:1088480044F08007D8A08107000E8025D96E010E5C
:108858008121DA6E6000FFF1DFFF76C06EF0000E56
:1088680080256F6F010E8121706F7BC071F07CC015
:1088780072F015EC48F01200000162356335696F3B
:108888006951D8A44AEF44F04CEF44F056EF44F055
:10889800000E606F000E616F000E626F000E636F56
:1088A800C3EF44F060C064F061C065F062C066F078
:1088B80063C067F0200E66EF44F0D89067336633E4
:1088C80065336433E82E61EF44F06451686F628F5A
:1088D800FF0E6017FF0E6117FF0E6217000E631779
:1088E800960E695F69BF7DEF44F07BEF44F093EF2C
:1088F80044F06951800A970FD8B085EF44F087EFAC
:1089080044F089EF44F04CEF44F0D890633362337D
:1089180061336033693F89EF44F0ABEF44F01F0ED9
:10892800696599EF44F09BEF44F0A3EF44F04CEFF6
:1089380044F0D89060376137623763376907695107
:10894800D8A4A9EF44F0ABEF44F09DEF44F0685190
:10895800D8B4B1EF44F0B3EF44F0BBEF44F0631F79
:10896800621F611F606D000E61236223632360C074
:1089780060F061C061F062C062F063C063F0120031
:10898800000E000187158F6F000E8815906F800EFE
:108998008915916F7F0E8A15926F8F5190119111E1
:1089A8009211D8A4DAEF44F0DCEF44F0E4EF44F09D
:1089B800000E876F000E886F000E896F000E8A6F99
:1089C800000E8B158F6F000E8C15906F800E8D1515
:1089D800916F7F0E8E15926F8F5190119111921198
:1089E800D8A4F9EF44F0FBEF44F003EF45F0000E94
:1089F8008B6F000E8C6F000E8D6F000E8E6F8AAF1E
:108A080008EF45F00AEF45F013EF45F0876D881F32
:108A1800D8B0882B891FD8B0892B800E8A578EAF83
:108A280018EF45F01AEF45F023EF45F08B6D8C1FDA
:108A3800D8B08C2B8D1FD8B08D2B800E8E57000E82
:108A4800871B000E881B000E891B800E8A1B000ED8
:108A58008B1B000E8C1B000E8D1B800E8E1B8B51EA
:108A6800875D8C5188598D5189598E518A59D8B052
:108A780040EF45F042EF45F045EF45F0D89046EF1E
:108A880045F0D88012002EC06AF02FC06BF030C0BD
:108A98006CF031C06DF060C06AF061C06BF062C00C
:108AA8006CF063C06DF06AC064F06BC065F06CC0B8
:108AB80066F06DC067F0180E68EF45F00001D890B9
:108AC8006733663365336433E82E62EF45F06451EB
:108AD800686F696B68516911D8A475EF45F077EF35
:108AE80045F097EF45F0D8906A35646F6B35656F40
:108AF8006C35666F6D35676F645165116611671166
:108B0800D8A489EF45F08BEF45F091EF45F0000EC2
:108B1800616F020E606FC6EF45F0000E616F030EC5
:108B2800606FC6EF45F068296911D8A49EEF45F03B
:108B3800A0EF45F0C2EF45F06AC064F06BC065F085
:108B48006CC066F06DC067F0090ED8906437653761
:108B580066376737E82EA9EF45F06451651166114D
:108B68006711D8B4BAEF45F0BDEF45F0010EBEEF7E
:108B780045F0000E606F616BC6EF45F0000E616F47
:068B8800040E606F1200F4
:108B90003901A0AFCEEF45F0D0EF45F0E0EF45F062
:108BA0003A0167A5D6EF45F0D8EF45F0E0EF45F084
:108BB000010E0001F76FCC503A0167953901A09F73
:108BC0003901A1A5E6EF45F0E8EF45F044EF46F0A6
:108BD0000001F651D8A4EFEF45F0F1EF45F042EF78
:108BE00046F03E01EF516F00C0FB28F0296A28C013
:108BF00029F0286A28100001F36F2950F46FF3C0A0
:108C000001F0F4C002F0000E02BEFF0E036E046E0F
:108C1000010EA7EC42F001C00FF002C010F003C03B
:108C200011F004C012F0000E136E000E146EA00EB0
:108C3000156E3A0E166ED2EC39F00FC0EBF010C084
:108C4000ECF011C0EDF012C0EEF0EBC00FF0ECC094
:108C500010F0EDC011F0EEC012F0000E136E000E19
:108C6000146E480E156E430E166ED2EC39F00FC01E
:108C700032F010C033F011C034F012C035F0010EE4
:108C80000001F86F3901A195110000016251D8B4BB
:108C90004CEF46F04EEF46F056EF46F06251D8A446
:108CA00054EF46F056EF46F05BEF46F06051B7ECFC
:108CB0004AF0A7EF46F06251D96EDA6A090ED9265A
:108CC000DE50DE10D8B467EF46F069EF46F082EF71
:108CD00046F06251D96EDA6A090ED9266251E16E08
:108CE000E26A020EE126DE50E65CE650800A676F1B
:108CF000DE50800A6759D8B080EF46F082EF46F028
:108D0000A7EF46F06251D96EDA6A020ED9266F00DB
:108D100078FF63F06F0074FF64F06251D96EDA6A15
:108D20006F0078FF65F06F0074FF66F06351652592
:108D3000D96E64516621DA6E600083F1DFFF625103
:108D4000D96EDA6A020ED926DE2A000EDD22120062
:108D50000001656B63BFB1EF46F0AFEF46F0B7EFD0
:108D600046F0626D631FD8B0632B010E656F61BF63
:108D7000BEEF46F0BCEF46F0C4EF46F0606D611FF9
:108D8000D8B0612B010E651B000E676F000E666F79
:108D900062516311D8B4CFEF46F0D1EF46F0F9EF4E
:108DA00046F0010E646FD9EF46F0D8906237633712
:108DB000642B63AFDEEF46F0E0EF46F0D5EF46F010
:108DC000D890663767376251605D63516159D8A0AA
:108DD000ECEF46F0EEEF46F0F3EF46F06251605FE5
:108DE0006351615B6681D89063336233642FE0EF37
:108DF00046F06551D8B4FFEF46F001EF47F005EFBC
:108E000047F0666D671FD8B0672B66C060F067C01B
:108E100061F01200000E0001666F000E656F605178
:108E2000D96EDA6A6F007FFFF6FF200EF76E000E34
:108E3000F86E0800F5502A0AD8A421EF47F023EF76
:108E400047F04CEF47F06051D96EDA6ADF2A615182
:108E5000D96EDA6A020EDF26DF5CD96EDA6A6F003D
:108E600078FF65F06F0078FF66F062EF47F00A0E5A
:108E700065036F00CCFF62F06F00D0FF63F0660304
:108E8000F350632764516225656F000E6321666F9E
:108E90006051D96EDA6ADF2A6051D96EDA6A6F00E2
:108EA0007FFFF6FF200EF76E000EF86E0800F550FB
:108EB000D00F646F090E646560EF47F062EF47F012
:108EC00037EF47F065C060F066C061F01200000146
:108ED000656B61BF70EF47F06EEF47F076EF47F0DC
:108EE000606D611FD8B0612B010E656F63BF7DEFB0
:108EF00047F07BEF47F081EF47F0626D631FD8B01A
:108F0000632B62516311D8B488EF47F08AEF47F0C2
:108F1000AEEF47F0010E646F92EF47F0D8906237E2
:108F20006337642B63AF97EF47F099EF47F08EEF0D
:108F300047F06251605D63516159D8A0A2EF47F0DC
:108F4000A4EF47F0A8EF47F06251605F6351615BA7
:108F5000D89063336233642F99EF47F06551D8B4EA
:108F6000B4EF47F0B6EF47F0BAEF47F0606D611F1E
:108F7000D8B0612B60C060F061C061F01200000EDB
:108F800000016015686F000E6115696F800E621533
:108F90006A6F7F0E63156B6F685169116A116B11EF
:108FA000D8A4D5EF47F0D7EF47F0DFEF47F0000E3A
:108FB000606F000E616F000E626F000E636F000E37
:108FC0006415686F000E6515696F800E66156A6F0F
:108FD0007F0E67156B6F685169116A116B11D8A408
:108FE000F4EF47F0F6EF47F0FEEF47F0000E646F46
:108FF000000E656F000E666F000E676F645160199A
:109000000FE1655161190CE16651621909E167517F
:109010006319D8B40EEF48F010EF48F013EF48F0A2
:10902000D89014EF48F0D88012000001F5A11BEF92
:1090300048F01DEF48F025EF48F06FC068F070C0B1
:1090400069F06EC06AF0B2EC49F0000172BF2DEF1A
:1090500048F02BEF48F031EF48F0000E726F000E31
:10906000716F000E756F000E746F42EF48F0000EC6
:10907000616F200E606F6EC062F045EC46F000013B
:10908000744B752B7151745D7551800A736F7251F9
:10909000800A7359D8A04FEF48F051EF48F037EFEE
:1090A00048F0F5B156EF48F058EF48F060EF48F05F
:1090B0006FC068F070C069F06EC06AF0B2EC49F041
:1090C00012007DEF48F060009FF1F6FF6000A3F111
:1090D000F7FF000EF86E1F0EF76403D00800F5507E
:1090E00007D06F00DBFFE1FF6F00DFFFE2FFE7501B
:1090F0007CEC4AF00001674B682B60009FF1F6FFA3
:109100006000A3F1F7FF000EF86E1F0EF76403D0A6
:109110000800F55007D06F00DBFFE1FF6F00DFFFB5
:10912000E2FFE7500009D8A498EF48F09AEF48F022
:1091300063EF48F0120062C069F063C06AF060C07B
:1091400067F061C068F0BAEF48F06000A7F1D9FF9E
:109150006000ABF1DAFFDF50666F694B6A2B60008D
:109160009FF1D9FF6000A3F1DAFF60009BF1DFFF00
:10917000674B682B00016407D8A06507642906E1E6
:109180006529D8A4C6EF48F0C8EF48F0A5EF48F02D
:109190001200000163BFCFEF48F0D1EF48F0DBEFE2
:1091A00048F060C060F061C061F062C062F063C00E
:1091B00063F0F4EF48F060C064F061C065F062C035
:1091C00066F063C067F0641F651F661F671F642B2E
:1091D000000E65236623672364C060F065C061F0FC
:1091E00066C062F067C063F0120000016E6F010E8E
:1091F00000016E65FEEF48F000EF49F00BEF49F01B
:1092000069510F0B6C6F6D6BC00E6C11706F6D51EF
:10921000716F14EF49F069510F0B6C6F6D6B800E1D
:109220006C11706F6D51716F70C06FF06F5190EC79
:109230004AF06AC067F06BC068F061EC48F0120059
:10924000000E0001636F000E626F3AEF49F0000EEE
:10925000656F000E646F644B652B655109E1A50EC7
:10926000645DD8A036EF49F038EF49F02BEF49F0B4
:10927000624B632B6051625D61516359D8A043EF2B
:1092800049F045EF49F027EF49F01200D3C0D5F07F
:1092900053EF49F0D2C0C7F0D50E0001C86FD4C05B
:1092A000C9F0C0EC3DF0600057F3F6FF200EF76EFA
:1092B000000EF86E0800F5500009D8A462EF49F0DE
:1092C00064EF49F04AEF49F0000E0001D36F000E41
:1092D000D26F120060C064F061C065F00001622BC3
:1092E0006205636F60008FF1F6FF200EF76E000ECF
:1092F000F86E600093F1D9FF600097F1DAFF644BDC
:10930000652B08006F00D7FFDFFFDF50D8A48BEF7D
:1093100049F08DEF49F06EEF49F01200000E0001A8
:109320008B1B000E8C1B000E8D1B800E8E1B87C0AE
:1093300060F088C061F089C062F08AC063F08BC0C1
:1093400064F08CC065F08DC066F08EC067F050ECA4
:1093500035F060C087F061C088F062C089F063C0FA
:109360008AF01200000E00016D6F000E6C6FC3EFEB
:1093700049F06BC060F0616B6AC062F045EC46F08A
:1093800000016C4B6D2B6C516825D96E6D516921B4
:10939000DA6EDF506B6F6B51D8A4D1EF49F0D3EF89
:1093A00049F0B9EF49F01200D90E0001DD6FD6C0C7
:1093B000DEF0D7C0DFF0000EE16F000EE06F000EB0
:1093C000E86F000EE76FDE0ED26FD8C0D3F0DD0E6F
:1093D000D46F46EC49F00001E051D625D96EE15139
:1093E000D721DA6EDF6A1200D29EC496BC963A018B
:1093F00062976097C4846095618564856395629582
:10940000D76A600ED66E080ED56E67953901909FAB
:109410003A01658566853901A09F908FD28AD28EE8
:10942000D28CD28E12000001605161116211631161
:10943000D8B41DEF4AF01FEF4AF027EF4AF0000EB4
:10944000601B000E611B000E621B800E631B60C060
:1094500060F061C061F062C062F063C063F012004E
:1094600000EE00F1500EEE6AE806FDE100EEEBF0D2
:109470000E0EEE6AE806FDE100EE2AF0160EEE6A28
:10948000E806FDE1080ED56E600ED66E000ED76EB2
:1094900000014DEF3FF0000167BF51EF4AF053EF7D
:1094A0004AF059EF4AF066C066F067C067F065EFB2
:1094B0004AF066C068F067C069F0681F691F684BB2
:1094C000692B68C066F069C067F01200000E0001E9
:1094D000616F1E0E606F20EC49F0C36AC56A010E11
:1094E00090EC4AF0380E90EC4AF00C0E90EC4AF0FA
:1094F000060E90EC4AF012000001666F60009BF1CE
:10950000BBFFBD80BD82100EE82EFED700D0BD92FD
:10951000000E0001616F010E606F20EC49F0120037
:109520000001666F60009BF1BBFFBD90BD82100E15
:10953000E82EFED700D0BD92000E0001616F030E31
:10954000606F20EC49F01200C2803A0140813E0178
:10955000F851F30B0409F86FF889F16BF88FFF6B82
:10956000EF6BF06BF66BF76BF36BF46B12001200A2
:020000040030CA
:0A000000F8FFFFFF9FFFFFFFFFFF67
:00000001FF
