:100000003F0E006E060E016E5B0E026E4F0E036E0B
:10001000660E046E6D0E056E7D0E066E070E076E83
:100020007F0E086E670E096E770E0A6E7C0E0B6EE1
:10003000390E0C6E5E0E0D6E790E0E6E710E0F6E19
:100040003F01CD6A3F01BD6A3A01706B3F01800EEE
:10005000C56E3F01CB6A3F01BB6A3A01506B3F015D
:10006000030EC36E000EE96EEA6A100E106E3F0EAC
:10007000CD6ECBA048EF00F0CBA248EF00F0000E11
:10008000E96EEA6AEF50CD6E7AEC00F039EF00F0DD
:10009000CBA04DEF00F052EF00F0CBA239EF00F013
:1000A00066EF00F0E92AE998E99AE99CE99EEF50A9
:1000B000CD6E7AEC00F0102E39EF00F0000EE96EF4
:1000C000100E106E39EF00F064EF00F0E906E998C9
:1000D000E99AE99CE99EEF50CD6E7AEC00F0103E73
:1000E00039EF00F0000EE96E100E106E39EF00F0DF
:1000F000000EE96E640E146E320E156E320E166E20
:100100001406FEE1640E146E1506FAE1320E156E49
:060110001606F6E11200E4
:020000040030CA
:0A000000F8FFFFFF9FFFFFFFFFFF67
:00000001FF
