:0400000010EF00F00D
:10002000C56A000EC56E2FD00A0E206EFE0E216E20
:10003000215020621FEF00F0226A3AEF00F02150B9
:1000400021BE2EEF00F020642AEF00F0020E226E97
:100050002EEF00F0010E226E34EF00F0010E226E42
:10006000020ECD6E40EF00F0020E226E040ECD6E39
:1000700040EF00F0000E226E000ECD6E40EF00F05B
:10008000000040EF00F0316A0A0E326E32BE326C70
:10009000640E312A325EFDE23106322631C062F052
:1000A000316A0A0E312A325EFDE23106322631C053
:1000B00061F032C060F0316AFE0E326E32BE326CD8
:1000C000640E312A325EFDE23106322631C072F012
:1000D0000A0E312A325EFDE23106322631C071F05D
:0800E00032C070F014EF00F0D3
:020000040030CA
:0A000000F8FFFFFF9FFFFFFFFFFF67
:00000001FF
