:0400000010EF00F00D
:10002000C56A000EC56E29D00F0E206EFB0E216E24
:10003000215020621FEF00F0226A36EF00F02150BD
:1000400021BE2EEF00F020642AEF00F0020E226E97
:100050002EEF00F0010E226E32EF00F0CD82CD9433
:100060003AEF00F0CD92CD843AEF00F0CD92CD94EE
:100070003AEF00F000003AEF00F0316A0F0E326EF6
:1000800032BE326C640E312A325EFDE23106322617
:1000900031C062F0316A0A0E312A325EFDE2310669
:1000A000322631C061F032C060F0316AFB0E326E30
:1000B00032BE326C640E312A325EFDE231063226E7
:1000C00031C072F00A0E312A325EFDE2310632266C
:0C00D00031C071F032C070F014EF00F08D
:020000040030CA
:0A000000F8FFFFFF9FFFFFFFFFFF67
:00000001FF
